{
  "contractName": "Marketplace",
  "abi": [
    {
      "inputs": [],
      "stateMutability": "nonpayable",
      "type": "constructor"
    },
    {
      "anonymous": false,
      "inputs": [
        {
          "indexed": false,
          "internalType": "uint256",
          "name": "_productId",
          "type": "uint256"
        }
      ],
      "name": "LogForSale",
      "type": "event"
    },
    {
      "anonymous": false,
      "inputs": [
        {
          "indexed": false,
          "internalType": "uint256",
          "name": "_productId",
          "type": "uint256"
        }
      ],
      "name": "LogSold",
      "type": "event"
    },
    {
      "anonymous": false,
      "inputs": [
        {
          "indexed": false,
          "internalType": "address",
          "name": "account",
          "type": "address"
        }
      ],
      "name": "Paused",
      "type": "event"
    },
    {
      "anonymous": false,
      "inputs": [
        {
          "indexed": false,
          "internalType": "uint256",
          "name": "_productId",
          "type": "uint256"
        }
      ],
      "name": "ProductAdded",
      "type": "event"
    },
    {
      "anonymous": false,
      "inputs": [
        {
          "indexed": false,
          "internalType": "uint256",
          "name": "_productId",
          "type": "uint256"
        }
      ],
      "name": "ProductModified",
      "type": "event"
    },
    {
      "anonymous": false,
      "inputs": [
        {
          "indexed": false,
          "internalType": "uint256",
          "name": "_productId",
          "type": "uint256"
        }
      ],
      "name": "ProductRemoved",
      "type": "event"
    },
    {
      "anonymous": false,
      "inputs": [
        {
          "indexed": false,
          "internalType": "address",
          "name": "account",
          "type": "address"
        }
      ],
      "name": "Unpaused",
      "type": "event"
    },
    {
      "inputs": [],
      "name": "paused",
      "outputs": [
        {
          "internalType": "bool",
          "name": "",
          "type": "bool"
        }
      ],
      "stateMutability": "view",
      "type": "function"
    },
    {
      "inputs": [
        {
          "internalType": "uint256",
          "name": "",
          "type": "uint256"
        }
      ],
      "name": "products",
      "outputs": [
        {
          "internalType": "uint256",
          "name": "id",
          "type": "uint256"
        },
        {
          "internalType": "string",
          "name": "name",
          "type": "string"
        },
        {
          "internalType": "uint256",
          "name": "price",
          "type": "uint256"
        },
        {
          "internalType": "enum Marketplace.State",
          "name": "state",
          "type": "uint8"
        },
        {
          "internalType": "address payable",
          "name": "seller",
          "type": "address"
        },
        {
          "internalType": "address payable",
          "name": "buyer",
          "type": "address"
        }
      ],
      "stateMutability": "view",
      "type": "function"
    },
    {
      "inputs": [],
      "name": "productsCount",
      "outputs": [
        {
          "internalType": "uint256",
          "name": "",
          "type": "uint256"
        }
      ],
      "stateMutability": "view",
      "type": "function"
    },
    {
      "inputs": [
        {
          "internalType": "string",
          "name": "_name",
          "type": "string"
        },
        {
          "internalType": "uint256",
          "name": "_price",
          "type": "uint256"
        }
      ],
      "name": "addProduct",
      "outputs": [
        {
          "internalType": "bool",
          "name": "",
          "type": "bool"
        }
      ],
      "stateMutability": "nonpayable",
      "type": "function"
    },
    {
      "inputs": [
        {
          "internalType": "uint256",
          "name": "_productId",
          "type": "uint256"
        }
      ],
      "name": "buyProduct",
      "outputs": [
        {
          "internalType": "bool",
          "name": "",
          "type": "bool"
        }
      ],
      "stateMutability": "payable",
      "type": "function"
    },
    {
      "inputs": [
        {
          "internalType": "uint256",
          "name": "_productId",
          "type": "uint256"
        }
      ],
      "name": "removeProduct",
      "outputs": [
        {
          "internalType": "bool",
          "name": "",
          "type": "bool"
        }
      ],
      "stateMutability": "nonpayable",
      "type": "function"
    },
    {
      "inputs": [
        {
          "internalType": "uint256",
          "name": "_productId",
          "type": "uint256"
        },
        {
          "internalType": "uint256",
          "name": "_newPrice",
          "type": "uint256"
        }
      ],
      "name": "modifyProduct",
      "outputs": [
        {
          "internalType": "bool",
          "name": "",
          "type": "bool"
        }
      ],
      "stateMutability": "nonpayable",
      "type": "function"
    }
  ],
  "bytecode": "0x608060405234801561001057600080fd5b5060008060006101000a81548160ff0219169083151502179055506001808190555033600460006101000a81548173ffffffffffffffffffffffffffffffffffffffff021916908373ffffffffffffffffffffffffffffffffffffffff16021790555060006003819055506118578061008a6000396000f3fe6080604052600436106100705760003560e01c80637acc0b201161004e5780637acc0b201461011a5780638642269e1461015c578063b15247d91461018c578063e0df7bb6146101c957610070565b8063140e0188146100755780635c975abb146100b25780635ee95cae146100dd575b600080fd5b34801561008157600080fd5b5061009c60048036038101906100979190610fdd565b6101f4565b6040516100a99190611038565b60405180910390f35b3480156100be57600080fd5b506100c7610413565b6040516100d49190611038565b60405180910390f35b3480156100e957600080fd5b5061010460048036038101906100ff9190611053565b610429565b6040516101119190611038565b60405180910390f35b34801561012657600080fd5b50610141600480360381019061013c9190611053565b6106c4565b604051610153969594939291906111e0565b60405180910390f35b61017660048036038101906101719190611053565b6107d5565b6040516101839190611038565b60405180910390f35b34801561019857600080fd5b506101b360048036038101906101ae919061137d565b610c56565b6040516101c09190611038565b60405180910390f35b3480156101d557600080fd5b506101de610eaa565b6040516101eb91906113d9565b60405180910390f35b6000828060026000838152602001908152602001600020600001541461024f576040517f08c379a000000000000000000000000000000000000000000000000000000000815260040161024690611466565b60405180910390fd5b836000600181111561026457610263611128565b5b6002600083815260200190815260200160002060030160009054906101000a900460ff16600181111561029a57610299611128565b5b1480156102be57506000600260008381526020019081526020016000206002015410155b6102c757600080fd5b843373ffffffffffffffffffffffffffffffffffffffff166002600083815260200190815260200160002060030160019054906101000a900473ffffffffffffffffffffffffffffffffffffffff1673ffffffffffffffffffffffffffffffffffffffff161461036c576040517f08c379a0000000000000000000000000000000000000000000000000000000008152600401610363906114f8565b60405180910390fd5b610374610413565b156103b4576040517f08c379a00000000000000000000000000000000000000000000000000000000081526004016103ab90611564565b60405180910390fd5b8460026000888152602001908152602001600020600201819055507f64552f29fa8020dcf595cb2be6a68e74bdfe6fdb2ce8d675faeb6d2a58fd58cc866040516103fe91906113d9565b60405180910390a16001935050505092915050565b60008060009054906101000a900460ff16905090565b60008180600260008381526020019081526020016000206000015414610484576040517f08c379a000000000000000000000000000000000000000000000000000000000815260040161047b90611466565b60405180910390fd5b826000600181111561049957610498611128565b5b6002600083815260200190815260200160002060030160009054906101000a900460ff1660018111156104cf576104ce611128565b5b1480156104f357506000600260008381526020019081526020016000206002015410155b6104fc57600080fd5b833373ffffffffffffffffffffffffffffffffffffffff166002600083815260200190815260200160002060030160019054906101000a900473ffffffffffffffffffffffffffffffffffffffff1673ffffffffffffffffffffffffffffffffffffffff16146105a1576040517f08c379a0000000000000000000000000000000000000000000000000000000008152600401610598906114f8565b60405180910390fd5b6105a9610413565b156105e9576040517f08c379a00000000000000000000000000000000000000000000000000000000081526004016105e090611564565b60405180910390fd5b600260008681526020019081526020016000206000808201600090556001820160006106159190610eb0565b60028201600090556003820160006101000a81549060ff02191690556003820160016101000a81549073ffffffffffffffffffffffffffffffffffffffff02191690556004820160006101000a81549073ffffffffffffffffffffffffffffffffffffffff021916905550507f07015631cff457b5b13492c2045e70c6305a0a4aa773e432e79abbe2cf52c1eb856040516106b091906113d9565b60405180910390a160019350505050919050565b60026020528060005260406000206000915090508060000154908060010180546106ed906115b3565b80601f0160208091040260200160405190810160405280929190818152602001828054610719906115b3565b80156107665780601f1061073b57610100808354040283529160200191610766565b820191906000526020600020905b81548152906001019060200180831161074957829003601f168201915b5050505050908060020154908060030160009054906101000a900460ff16908060030160019054906101000a900473ffffffffffffffffffffffffffffffffffffffff16908060040160009054906101000a900473ffffffffffffffffffffffffffffffffffffffff16905086565b60008180600260008381526020019081526020016000206000015414610830576040517f08c379a000000000000000000000000000000000000000000000000000000000815260040161082790611466565b60405180910390fd5b826000600181111561084557610844611128565b5b6002600083815260200190815260200160002060030160009054906101000a900460ff16600181111561087b5761087a611128565b5b14801561089f57506000600260008381526020019081526020016000206002015410155b6108a857600080fd5b833373ffffffffffffffffffffffffffffffffffffffff166002600083815260200190815260200160002060030160019054906101000a900473ffffffffffffffffffffffffffffffffffffffff1673ffffffffffffffffffffffffffffffffffffffff16141561094e576040517f08c379a000000000000000000000000000000000000000000000000000000000815260040161094590611657565b60405180910390fd5b6002600086815260200190815260200160002060020154803410156109a8576040517f08c379a000000000000000000000000000000000000000000000000000000000815260040161099f906116e9565b60405180910390fd5b856109b1610413565b156109f1576040517f08c379a00000000000000000000000000000000000000000000000000000000081526004016109e890611564565b60405180910390fd5b60026001541415610a37576040517f08c379a0000000000000000000000000000000000000000000000000000000008152600401610a2e90611755565b60405180910390fd5b60026001819055506002600088815260200190815260200160002060030160019054906101000a900473ffffffffffffffffffffffffffffffffffffffff1673ffffffffffffffffffffffffffffffffffffffff166108fc600260008a8152602001908152602001600020600201549081150290604051600060405180830381858888f19350505050158015610ad1573d6000803e3d6000fd5b50336002600089815260200190815260200160002060040160006101000a81548173ffffffffffffffffffffffffffffffffffffffff021916908373ffffffffffffffffffffffffffffffffffffffff16021790555060016002600089815260200190815260200160002060030160006101000a81548160ff02191690836001811115610b6157610b60611128565b5b02179055507fe64ca8c671e48636f85f3008c1dd538e36bfa74fb6f2790b56b72fcc33b879ef87604051610b9591906113d9565b60405180910390a160019550600180819055506000600260008381526020019081526020016000206002015434610bcc91906117a4565b90506002600083815260200190815260200160002060040160009054906101000a900473ffffffffffffffffffffffffffffffffffffffff1673ffffffffffffffffffffffffffffffffffffffff166108fc829081150290604051600060405180830381858888f19350505050158015610c4a573d6000803e3d6000fd5b50505050505050919050565b6000610c60610413565b15610ca0576040517f08c379a0000000000000000000000000000000000000000000000000000000008152600401610c9790611564565b60405180910390fd5b6040518060c00160405280600354815260200184815260200183815260200160006001811115610cd357610cd2611128565b5b81526020013373ffffffffffffffffffffffffffffffffffffffff168152602001600073ffffffffffffffffffffffffffffffffffffffff16815250600260006003548152602001908152602001600020600082015181600001556020820151816001019080519060200190610d4a929190610ef0565b506040820151816002015560608201518160030160006101000a81548160ff02191690836001811115610d8057610d7f611128565b5b021790555060808201518160030160016101000a81548173ffffffffffffffffffffffffffffffffffffffff021916908373ffffffffffffffffffffffffffffffffffffffff16021790555060a08201518160040160006101000a81548173ffffffffffffffffffffffffffffffffffffffff021916908373ffffffffffffffffffffffffffffffffffffffff1602179055509050507f4fc9d5acc453e78e01b205af5788a1c62f195c4b5cdc8eb8f1c670863b7e736a600354604051610e4791906113d9565b60405180910390a17f4627c48065af2a9648cbecdd4b9da340c00e501243cd49a8a71c30c987e8b761600354604051610e8091906113d9565b60405180910390a160036000815480929190610e9b906117d8565b91905055506001905092915050565b60035481565b508054610ebc906115b3565b6000825580601f10610ece5750610eed565b601f016020900490600052602060002090810190610eec9190610f76565b5b50565b828054610efc906115b3565b90600052602060002090601f016020900481019282610f1e5760008555610f65565b82601f10610f3757805160ff1916838001178555610f65565b82800160010185558215610f65579182015b82811115610f64578251825591602001919060010190610f49565b5b509050610f729190610f76565b5090565b5b80821115610f8f576000816000905550600101610f77565b5090565b6000604051905090565b600080fd5b600080fd5b6000819050919050565b610fba81610fa7565b8114610fc557600080fd5b50565b600081359050610fd781610fb1565b92915050565b60008060408385031215610ff457610ff3610f9d565b5b600061100285828601610fc8565b925050602061101385828601610fc8565b9150509250929050565b60008115159050919050565b6110328161101d565b82525050565b600060208201905061104d6000830184611029565b92915050565b60006020828403121561106957611068610f9d565b5b600061107784828501610fc8565b91505092915050565b61108981610fa7565b82525050565b600081519050919050565b600082825260208201905092915050565b60005b838110156110c95780820151818401526020810190506110ae565b838111156110d8576000848401525b50505050565b6000601f19601f8301169050919050565b60006110fa8261108f565b611104818561109a565b93506111148185602086016110ab565b61111d816110de565b840191505092915050565b7f4e487b7100000000000000000000000000000000000000000000000000000000600052602160045260246000fd5b6002811061116857611167611128565b5b50565b600081905061117982611157565b919050565b60006111898261116b565b9050919050565b6111998161117e565b82525050565b600073ffffffffffffffffffffffffffffffffffffffff82169050919050565b60006111ca8261119f565b9050919050565b6111da816111bf565b82525050565b600060c0820190506111f56000830189611080565b818103602083015261120781886110ef565b90506112166040830187611080565b6112236060830186611190565b61123060808301856111d1565b61123d60a08301846111d1565b979650505050505050565b600080fd5b600080fd5b7f4e487b7100000000000000000000000000000000000000000000000000000000600052604160045260246000fd5b61128a826110de565b810181811067ffffffffffffffff821117156112a9576112a8611252565b5b80604052505050565b60006112bc610f93565b90506112c88282611281565b919050565b600067ffffffffffffffff8211156112e8576112e7611252565b5b6112f1826110de565b9050602081019050919050565b82818337600083830152505050565b600061132061131b846112cd565b6112b2565b90508281526020810184848401111561133c5761133b61124d565b5b6113478482856112fe565b509392505050565b600082601f83011261136457611363611248565b5b813561137484826020860161130d565b91505092915050565b6000806040838503121561139457611393610f9d565b5b600083013567ffffffffffffffff8111156113b2576113b1610fa2565b5b6113be8582860161134f565b92505060206113cf85828601610fc8565b9150509250929050565b60006020820190506113ee6000830184611080565b92915050565b7f706c656173652070726f7669646520612076616c69642070726f64756374206960008201527f6400000000000000000000000000000000000000000000000000000000000000602082015250565b600061145060218361109a565b915061145b826113f4565b604082019050919050565b6000602082019050818103600083015261147f81611443565b9050919050565b7f6f6e6c792073656c6c6572206f66207468652070726f6475637420686173207260008201527f6967687420746f2063616c6c20746869732066756e6374696f6e000000000000602082015250565b60006114e2603a8361109a565b91506114ed82611486565b604082019050919050565b60006020820190508181036000830152611511816114d5565b9050919050565b7f5061757361626c653a2070617573656400000000000000000000000000000000600082015250565b600061154e60108361109a565b915061155982611518565b602082019050919050565b6000602082019050818103600083015261157d81611541565b9050919050565b7f4e487b7100000000000000000000000000000000000000000000000000000000600052602260045260246000fd5b600060028204905060018216806115cb57607f821691505b602082108114156115df576115de611584565b5b50919050565b7f73656c6c6572206f66207468652070726f647563742063616e206e6f7420636160008201527f6c6c20746869732066756e6374696f6e00000000000000000000000000000000602082015250565b600061164160308361109a565b915061164c826115e5565b604082019050919050565b6000602082019050818103600083015261167081611634565b9050919050565b7f706c656173652070726f7669646520656e6f7570682076616c756520696e207460008201527f6865207472616e73616374696f6e210000000000000000000000000000000000602082015250565b60006116d3602f8361109a565b91506116de82611677565b604082019050919050565b60006020820190508181036000830152611702816116c6565b9050919050565b7f5265656e7472616e637947756172643a207265656e7472616e742063616c6c00600082015250565b600061173f601f8361109a565b915061174a82611709565b602082019050919050565b6000602082019050818103600083015261176e81611732565b9050919050565b7f4e487b7100000000000000000000000000000000000000000000000000000000600052601160045260246000fd5b60006117af82610fa7565b91506117ba83610fa7565b9250828210156117cd576117cc611775565b5b828203905092915050565b60006117e382610fa7565b91507fffffffffffffffffffffffffffffffffffffffffffffffffffffffffffffffff82141561181657611815611775565b5b60018201905091905056fea264697066735822122012a86f6a6c25d7bf22701675a1f44f186f7eb48d486980a34a1d81c523fbff5864736f6c63430008090033",
  "immutableReferences": {},
  "source": "// SPDX-License-Identifier: MIT\r\npragma solidity >=0.4.22 <0.9.0;\r\n\r\nimport \"@openzeppelin/contracts/utils/math/SafeMath.sol\";\r\nimport \"@openzeppelin/contracts/security/Pausable.sol\";\r\nimport \"@openzeppelin/contracts/security/ReentrancyGuard.sol\";\r\n\r\ncontract Marketplace is Pausable, ReentrancyGuard {\r\n\r\n\tusing SafeMath for uint;\r\n\r\n\t/** state variables  */\r\n\r\n\t// define enum to store state for each product\r\n\tenum State {\r\n\t\tForSale,\r\n\t\tSold\r\n\t}\r\n\r\n\t// struct to keep all required data for a single product \r\n\tstruct Product {\r\n\t\tuint id;\r\n\t\tstring name;\r\n\t\tuint price;\r\n\t\tState state;\r\n\t\taddress payable seller;\r\n\t\taddress payable buyer;\r\n\t}\r\n\r\n\t// store a mapping for products\r\n\tmapping(uint => Product) public products;\r\n\r\n\t// store products count\r\n\tuint public productsCount;\r\n\r\n\t// store owner of the contract\r\n\taddress owner;\r\n\r\n\t/** modifiers  */\r\n\r\n\tmodifier onlySeller(uint _productId) {\r\n\t\trequire(\r\n\t\t\tproducts[_productId].seller == msg.sender,\r\n\t\t\t\"only seller of the product has right to call this function\"\r\n\t\t);\r\n\t\t_;\r\n\t}\r\n\r\n\tmodifier notSeller(uint _productId) {\r\n\t\trequire(\r\n\t\t\tproducts[_productId].seller != msg.sender,\r\n\t\t\t\"seller of the product can not call this function\"\r\n\t\t);\r\n\t\t_;\r\n\t}\r\n\r\n\tmodifier forSale(uint _productId) {\r\n\t\trequire(\r\n\t\t\tproducts[_productId].state == State.ForSale && products[_productId].price >= 0\r\n\t\t);\r\n\t\t_;\r\n\t}\r\n\r\n\tmodifier sold(uint _productId) {\r\n\t\trequire(\r\n\t\t\tproducts[_productId].state == State.Sold && products[_productId].buyer != address(0)\r\n\t\t);\r\n\t\t_;\r\n\t}\r\n\r\n\tmodifier paidEnough(uint _price) {\r\n\t\trequire(\r\n\t\t\tmsg.value >= _price,\r\n\t\t\t\"please provide enouph value in the transaction!\"\r\n\t\t);\r\n\t\t_;\r\n\t}\r\n\r\n\t// refund users after pay for items\r\n\tmodifier refundUser(uint _productId) {\r\n\t\t_;\r\n\t\tuint refundAmount = msg.value - products[_productId].price;\r\n\t\tproducts[_productId].buyer.transfer(refundAmount);\r\n\t}\r\n\r\n\tmodifier validProductId(uint _productId) {\r\n\t\trequire(\r\n\t\t\tproducts[_productId].id == _productId,\r\n\t\t\t\"please provide a valid product id\"\r\n\t\t);\r\n\t\t_;\r\n\t}\r\n\r\n\r\n\t/** Events */\r\n\r\n\tevent LogForSale(uint _productId);\r\n\r\n\tevent LogSold(uint _productId);\r\n\r\n\tevent ProductAdded(uint _productId);\r\n\r\n\tevent ProductModified(uint _productId);\r\n\r\n\tevent ProductRemoved(uint _productId);\r\n\r\n\tconstructor() {\r\n\t\t// set owner of the contract\r\n\t\towner = msg.sender;\r\n\r\n\t\t// initializing products count\r\n\t\tproductsCount = 0;\r\n\t}\r\n\r\n\t/** Add new product */\r\n\tfunction addProduct(\r\n\t\tstring memory _name,\r\n\t\tuint _price\r\n\t)\r\n\tpublic\r\n\twhenNotPaused()\r\n\treturns (bool)\r\n\t{\r\n\t\tproducts[productsCount] = Product({\r\n\t\tid : productsCount,\r\n\t\tname : _name,\r\n\t\tprice : _price, // in wei\r\n\t\tstate : State.ForSale,\r\n\t\tseller : payable(msg.sender),\r\n\t\tbuyer : payable(address(0))\r\n\t\t});\r\n\t\temit ProductAdded(productsCount);\r\n\t\temit LogForSale(productsCount);\r\n\t\tproductsCount++;\r\n\t\treturn true;\r\n\t}\r\n\r\n\r\n\tfunction buyProduct(uint _productId)\r\n\tpublic\r\n\tpayable\r\n\tvalidProductId(_productId)\r\n\tforSale(_productId)\r\n\tnotSeller(_productId)\r\n\tpaidEnough(products[_productId].price)\r\n\trefundUser(_productId)\r\n\twhenNotPaused()\r\n\tnonReentrant()\r\n\treturns (bool)\r\n\t{\r\n\t\t// (bool success,) = payable(products[_productId].seller).call{value: products[_productId].price ether}(\"\");\r\n\t\t// require(success, \"transaction failed\");\r\n\t\tpayable(products[_productId].seller).transfer(products[_productId].price);\r\n\t\tproducts[_productId].buyer = payable(msg.sender);\r\n\t\tproducts[_productId].state = State.Sold;\r\n\t\temit LogSold(_productId);\r\n\t\treturn true;\r\n\t}\r\n\r\n\r\n\tfunction removeProduct(uint _productId)\r\n\tpublic\r\n\tvalidProductId(_productId)\r\n\tforSale(_productId)\r\n\tonlySeller(_productId)\r\n\twhenNotPaused()\r\n\treturns (bool)\r\n\t{\r\n\t\tdelete products[_productId];\r\n\t\temit ProductRemoved(_productId);\r\n\t\treturn true;\r\n\t}\r\n\r\n\tfunction modifyProduct(uint _productId, uint _newPrice)\r\n\tpublic\r\n\tvalidProductId(_productId)\r\n\tforSale(_productId)\r\n\tonlySeller(_productId)\r\n\twhenNotPaused()\r\n\treturns (bool)\r\n\t{\r\n\t\tproducts[_productId].price = _newPrice;\r\n\t\temit ProductModified(_productId);\r\n\t\treturn true;\r\n\t}\r\n\r\n}",
  "sourcePath": "D:\\myFiles\\Learning\\Solidity\\Courses\\coiniran_summer_2021\\exercises\\marketplace\\smartcontract\\contracts\\Marcketplace.sol",
  "compiler": {
    "name": "solc",
    "version": "0.8.9+commit.e5eed63a.Emscripten.clang"
  },
  "schemaVersion": "3.4.3",
  "updatedAt": "2021-10-11T08:23:16.199Z",
  "devdoc": {
    "kind": "dev",
    "methods": {
      "paused()": {
        "details": "Returns true if the contract is paused, and false otherwise."
      }
    },
    "version": 1
  },
  "userdoc": {
    "events": {
      "LogForSale(uint256)": {
        "notice": "Events "
      }
    },
    "kind": "user",
    "methods": {
      "addProduct(string,uint256)": {
        "notice": "Add new product "
      }
    },
    "version": 1
  }
}